{
  "contractName": "ExerciseC6CApp",
  "abi": [
    {
      "inputs": [
        {
          "name": "dataContract",
          "type": "address"
        }
      ],
      "payable": false,
      "stateMutability": "nonpayable",
      "type": "constructor"
    },
    {
      "constant": false,
      "inputs": [
        {
          "name": "id",
          "type": "string"
        },
        {
          "name": "amount",
          "type": "uint256"
        }
      ],
      "name": "addSale",
      "outputs": [],
      "payable": false,
      "stateMutability": "nonpayable",
      "type": "function"
    }
  ],
  "bytecode": "0x608060405234801561001057600080fd5b506040516020806104d183398101806040528101908080519060200190929190505050336000806101000a81548173ffffffffffffffffffffffffffffffffffffffff021916908373ffffffffffffffffffffffffffffffffffffffff16021790555080600160006101000a81548173ffffffffffffffffffffffffffffffffffffffff021916908373ffffffffffffffffffffffffffffffffffffffff1602179055505061040d806100c46000396000f300608060405260043610610041576000357c0100000000000000000000000000000000000000000000000000000000900463ffffffff1680635cd25e5314610046575b600080fd5b34801561005257600080fd5b506100896004803603810190808035906020019082018035906020019190919293919293908035906020019092919050505061008b565b005b6000809054906101000a900473ffffffffffffffffffffffffffffffffffffffff1673ffffffffffffffffffffffffffffffffffffffff163373ffffffffffffffffffffffffffffffffffffffff1614151561014f576040517f08c379a000000000000000000000000000000000000000000000000000000000815260040180806020018281038252601c8152602001807f43616c6c6572206973206e6f7420636f6e7472616374206f776e65720000000081525060200191505060405180910390fd5b600160009054906101000a900473ffffffffffffffffffffffffffffffffffffffff1673ffffffffffffffffffffffffffffffffffffffff166356b35dd58484846101998661022f565b6040518563ffffffff167c010000000000000000000000000000000000000000000000000000000002815260040180806020018481526020018381526020018281038252868682818152602001925080828437820191505095505050505050600060405180830381600087803b15801561021257600080fd5b505af1158015610226573d6000803e3d6000fd5b50505050505050565b60008060009054906101000a900473ffffffffffffffffffffffffffffffffffffffff1673ffffffffffffffffffffffffffffffffffffffff163373ffffffffffffffffffffffffffffffffffffffff161415156102f5576040517f08c379a000000000000000000000000000000000000000000000000000000000815260040180806020018281038252601c8152602001807f43616c6c6572206973206e6f7420636f6e7472616374206f776e65720000000081525060200191505060405180910390fd5b606482101561032c57610325606461031760058561039390919063ffffffff16565b6103cb90919063ffffffff16565b905061038e565b6101f48210156103645761035d606461034f60078561039390919063ffffffff16565b6103cb90919063ffffffff16565b905061038e565b61038b606461037d600a8561039390919063ffffffff16565b6103cb90919063ffffffff16565b90505b919050565b6000808314156103a657600090506103c5565b81830290508183828115156103b757fe5b041415156103c157fe5b8090505b92915050565b600081838115156103d857fe5b049050929150505600a165627a7a7230582047eafd9fc41ae45721b457f297fe283bafc122bbe401da38dcaabc1964bf1bcd0029",
  "source": "pragma solidity ^0.4.25;\n\n// It's important to avoid vulnerabilities due to numeric overflow bugs\n// OpenZeppelin's SafeMath library, when used correctly, protects agains such bugs\n// More info: https://www.nccgroup.trust/us/about-us/newsroom-and-events/blog/2018/november/smart-contract-insecurity-bad-arithmetic/\n\nimport \"../../node_modules/openzeppelin-solidity/contracts/math/SafeMath.sol\";\n\ncontract ExerciseC6CApp {\n    using SafeMath for uint256; // Allow SafeMath functions to be called for all uint256 types (similar to \"prototype\" in Javascript)\n\n    address private contractOwner; // Account used to deploy contract\n    ExerciseC6C exerciseC6C;\n\n    modifier requireContractOwner() {\n        require(msg.sender == contractOwner, \"Caller is not contract owner\");\n        _;\n    }\n\n    constructor(address dataContract) public {\n        contractOwner = msg.sender;\n        exerciseC6C = ExerciseC6C(dataContract);\n    }\n\n    function calculateBonus(uint256 sales)\n        internal\n        view\n        requireContractOwner\n        returns (uint256)\n    {\n        if (sales < 100) {\n            return sales.mul(5).div(100);\n        } else if (sales < 500) {\n            return sales.mul(7).div(100);\n        } else {\n            return sales.mul(10).div(100);\n        }\n    }\n\n    function addSale(string id, uint256 amount) external requireContractOwner {\n        exerciseC6C.updateEmployee(id, amount, calculateBonus(amount));\n    }\n}\n\ncontract ExerciseC6C {\n    function updateEmployee(\n        string id,\n        uint256 sales,\n        uint256 bonus\n    ) external;\n}\n",
  "sourcePath": "/Users/rdouglas/GitHub/blockchain-developer-nanodegree/BlockchainNanodegree-C6-Exercises/contracts/ExerciseC6C/ExerciseC6CApp.sol",
  "compiler": {
    "name": "solc",
    "version": "0.4.26+commit.4563c3fc.Emscripten.clang"
  },
  "schemaVersion": "3.4.11",
  "updatedAt": "2023-02-27T14:59:24.774Z",
  "devdoc": {
    "methods": {}
  },
  "userdoc": {
    "methods": {}
  }
}